{
  "_format": "hh-sol-artifact-1",
  "contractName": "Negotiation",
  "sourceName": "contracts/Negotiation.sol",
  "abi": [
    {
      "anonymous": false,
      "inputs": [
        {
          "indexed": true,
          "internalType": "uint256",
          "name": "negotiationId",
          "type": "uint256"
        },
        {
          "indexed": true,
          "internalType": "address",
          "name": "sender",
          "type": "address"
        },
        {
          "indexed": false,
          "internalType": "string",
          "name": "content",
          "type": "string"
        },
        {
          "indexed": false,
          "internalType": "uint256",
          "name": "offerAmount",
          "type": "uint256"
        },
        {
          "indexed": false,
          "internalType": "uint256",
          "name": "timestamp",
          "type": "uint256"
        }
      ],
      "name": "MessageSent",
      "type": "event"
    },
    {
      "anonymous": false,
      "inputs": [
        {
          "indexed": true,
          "internalType": "uint256",
          "name": "negotiationId",
          "type": "uint256"
        },
        {
          "indexed": false,
          "internalType": "enum Negotiation.NegotiationStatus",
          "name": "status",
          "type": "uint8"
        }
      ],
      "name": "NegotiationClosed",
      "type": "event"
    },
    {
      "anonymous": false,
      "inputs": [
        {
          "indexed": true,
          "internalType": "uint256",
          "name": "negotiationId",
          "type": "uint256"
        },
        {
          "indexed": true,
          "internalType": "address",
          "name": "buyer",
          "type": "address"
        },
        {
          "indexed": true,
          "internalType": "address",
          "name": "seller",
          "type": "address"
        },
        {
          "indexed": false,
          "internalType": "string",
          "name": "domain",
          "type": "string"
        },
        {
          "indexed": false,
          "internalType": "uint256",
          "name": "initialOffer",
          "type": "uint256"
        }
      ],
      "name": "NegotiationStarted",
      "type": "event"
    },
    {
      "anonymous": false,
      "inputs": [
        {
          "indexed": true,
          "internalType": "uint256",
          "name": "negotiationId",
          "type": "uint256"
        },
        {
          "indexed": false,
          "internalType": "uint256",
          "name": "amount",
          "type": "uint256"
        },
        {
          "indexed": false,
          "internalType": "uint256",
          "name": "timestamp",
          "type": "uint256"
        }
      ],
      "name": "OfferAccepted",
      "type": "event"
    },
    {
      "inputs": [
        {
          "internalType": "uint256",
          "name": "negotiationId",
          "type": "uint256"
        }
      ],
      "name": "acceptOffer",
      "outputs": [],
      "stateMutability": "nonpayable",
      "type": "function"
    },
    {
      "inputs": [
        {
          "internalType": "uint256",
          "name": "negotiationId",
          "type": "uint256"
        },
        {
          "internalType": "bool",
          "name": "rejected",
          "type": "bool"
        }
      ],
      "name": "closeNegotiation",
      "outputs": [],
      "stateMutability": "nonpayable",
      "type": "function"
    },
    {
      "inputs": [
        {
          "internalType": "uint256",
          "name": "negotiationId",
          "type": "uint256"
        }
      ],
      "name": "getMessageCount",
      "outputs": [
        {
          "internalType": "uint256",
          "name": "",
          "type": "uint256"
        }
      ],
      "stateMutability": "view",
      "type": "function"
    },
    {
      "inputs": [
        {
          "internalType": "uint256",
          "name": "negotiationId",
          "type": "uint256"
        }
      ],
      "name": "getMessages",
      "outputs": [
        {
          "components": [
            {
              "internalType": "address",
              "name": "sender",
              "type": "address"
            },
            {
              "internalType": "string",
              "name": "content",
              "type": "string"
            },
            {
              "internalType": "uint256",
              "name": "timestamp",
              "type": "uint256"
            },
            {
              "internalType": "uint256",
              "name": "offerAmount",
              "type": "uint256"
            }
          ],
          "internalType": "struct Negotiation.Message[]",
          "name": "",
          "type": "tuple[]"
        }
      ],
      "stateMutability": "view",
      "type": "function"
    },
    {
      "inputs": [
        {
          "internalType": "uint256",
          "name": "negotiationId",
          "type": "uint256"
        }
      ],
      "name": "getNegotiation",
      "outputs": [
        {
          "internalType": "uint256",
          "name": "id",
          "type": "uint256"
        },
        {
          "internalType": "address",
          "name": "buyer",
          "type": "address"
        },
        {
          "internalType": "address",
          "name": "seller",
          "type": "address"
        },
        {
          "internalType": "string",
          "name": "domain",
          "type": "string"
        },
        {
          "internalType": "uint256",
          "name": "initialOffer",
          "type": "uint256"
        },
        {
          "internalType": "uint256",
          "name": "currentOffer",
          "type": "uint256"
        },
        {
          "internalType": "enum Negotiation.NegotiationStatus",
          "name": "status",
          "type": "uint8"
        },
        {
          "internalType": "uint256",
          "name": "createdAt",
          "type": "uint256"
        },
        {
          "internalType": "uint256",
          "name": "updatedAt",
          "type": "uint256"
        }
      ],
      "stateMutability": "view",
      "type": "function"
    },
    {
      "inputs": [
        {
          "internalType": "address",
          "name": "user",
          "type": "address"
        }
      ],
      "name": "getUserNegotiations",
      "outputs": [
        {
          "internalType": "uint256[]",
          "name": "",
          "type": "uint256[]"
        }
      ],
      "stateMutability": "view",
      "type": "function"
    },
    {
      "inputs": [
        {
          "internalType": "uint256",
          "name": "",
          "type": "uint256"
        },
        {
          "internalType": "uint256",
          "name": "",
          "type": "uint256"
        }
      ],
      "name": "messages",
      "outputs": [
        {
          "internalType": "address",
          "name": "sender",
          "type": "address"
        },
        {
          "internalType": "string",
          "name": "content",
          "type": "string"
        },
        {
          "internalType": "uint256",
          "name": "timestamp",
          "type": "uint256"
        },
        {
          "internalType": "uint256",
          "name": "offerAmount",
          "type": "uint256"
        }
      ],
      "stateMutability": "view",
      "type": "function"
    },
    {
      "inputs": [],
      "name": "negotiationCount",
      "outputs": [
        {
          "internalType": "uint256",
          "name": "",
          "type": "uint256"
        }
      ],
      "stateMutability": "view",
      "type": "function"
    },
    {
      "inputs": [
        {
          "internalType": "uint256",
          "name": "",
          "type": "uint256"
        }
      ],
      "name": "negotiations",
      "outputs": [
        {
          "internalType": "uint256",
          "name": "id",
          "type": "uint256"
        },
        {
          "internalType": "address",
          "name": "buyer",
          "type": "address"
        },
        {
          "internalType": "address",
          "name": "seller",
          "type": "address"
        },
        {
          "internalType": "string",
          "name": "domain",
          "type": "string"
        },
        {
          "internalType": "uint256",
          "name": "initialOffer",
          "type": "uint256"
        },
        {
          "internalType": "uint256",
          "name": "currentOffer",
          "type": "uint256"
        },
        {
          "internalType": "enum Negotiation.NegotiationStatus",
          "name": "status",
          "type": "uint8"
        },
        {
          "internalType": "uint256",
          "name": "createdAt",
          "type": "uint256"
        },
        {
          "internalType": "uint256",
          "name": "updatedAt",
          "type": "uint256"
        }
      ],
      "stateMutability": "view",
      "type": "function"
    },
    {
      "inputs": [
        {
          "internalType": "uint256",
          "name": "negotiationId",
          "type": "uint256"
        },
        {
          "internalType": "string",
          "name": "content",
          "type": "string"
        },
        {
          "internalType": "uint256",
          "name": "offerAmount",
          "type": "uint256"
        }
      ],
      "name": "sendMessage",
      "outputs": [],
      "stateMutability": "nonpayable",
      "type": "function"
    },
    {
      "inputs": [
        {
          "internalType": "address",
          "name": "seller",
          "type": "address"
        },
        {
          "internalType": "string",
          "name": "domain",
          "type": "string"
        },
        {
          "internalType": "uint256",
          "name": "initialOffer",
          "type": "uint256"
        }
      ],
      "name": "startNegotiation",
      "outputs": [
        {
          "internalType": "uint256",
          "name": "",
          "type": "uint256"
        }
      ],
      "stateMutability": "nonpayable",
      "type": "function"
    },
    {
      "inputs": [
        {
          "internalType": "address",
          "name": "",
          "type": "address"
        },
        {
          "internalType": "uint256",
          "name": "",
          "type": "uint256"
        }
      ],
      "name": "userNegotiations",
      "outputs": [
        {
          "internalType": "uint256",
          "name": "",
          "type": "uint256"
        }
      ],
      "stateMutability": "view",
      "type": "function"
    }
  ],
  "bytecode": "0x608060405234801561001057600080fd5b5061181c806100206000396000f3fe608060405234801561001057600080fd5b50600436106100b45760003560e01c8063c815729d11610071578063c815729d14610176578063dcd906e114610189578063eb41c78e1461019c578063ec07c694146101bc578063f982e33e146101cf578063fa0b8638146101d857600080fd5b80638a14e660146100b95780638ae80fc9146100ea5780638f2721121461010b578063ae36853d1461012e578063c6200af41461014e578063c6798c0314610163575b600080fd5b6100cc6100c7366004611152565b6101f8565b6040516100e1999897969594939291906111e9565b60405180910390f35b6100fd6100f83660046112b5565b61038f565b6040519081526020016100e1565b61011e61011936600461130f565b61077b565b6040516100e19493929190611331565b61014161013c366004611152565b610857565b6040516100e19190611368565b61016161015c3660046113fe565b610985565b005b610161610171366004611433565b610be5565b610161610184366004611152565b610dba565b6100cc610197366004611152565b610fd4565b6101af6101aa366004611467565b6110b5565b6040516100e19190611489565b6100fd6101ca3660046114cd565b611121565b6100fd60035481565b6100fd6101e6366004611152565b60009081526001602052604090205490565b6000818152602081815260408083208151610120810183528154815260018201546001600160a01b0390811694820194909452600282015490931691830191909152600381018054849384936060938593849384938493849384939291838b0191610262906114f7565b80601f016020809104026020016040519081016040528092919081815260200182805461028e906114f7565b80156102db5780601f106102b0576101008083540402835291602001916102db565b820191906000526020600020905b8154815290600101906020018083116102be57829003601f168201915b50505091835250506004820154602082015260058201546040820152600682015460609091019060ff166003811115610316576103166111b1565b6003811115610327576103276111b1565b8152602001600782015481526020016008820154815250509050806000015181602001518260400151836060015184608001518560a001518660c001518760e00151886101000151995099509950995099509950995099509950509193959799909294969850565b60006001600160a01b0385166103e55760405162461bcd60e51b8152602060048201526016602482015275496e76616c69642073656c6c6572206164647265737360501b60448201526064015b60405180910390fd5b336001600160a01b0386160361043d5760405162461bcd60e51b815260206004820152601e60248201527f43616e6e6f74206e65676f7469617465207769746820796f757273656c66000060448201526064016103dc565b826104835760405162461bcd60e51b8152602060048201526016602482015275446f6d61696e2063616e6e6f7420626520656d70747960501b60448201526064016103dc565b600380546000918261049483611531565b919050559050604051806101200160405280828152602001336001600160a01b03168152602001876001600160a01b0316815260200186868080601f016020809104026020016040519081016040528093929190818152602001838380828437600092018290525093855250505060208201869052604082018690526060909101908152426020808301829052604092830191909152600084815280825282902083518155908301516001820180546001600160a01b03199081166001600160a01b0393841617909155928401516002830180549094169116179091556060820151600382019061058590826115bd565b506080820151600482015560a0820151600582015560c082015160068201805460ff191660018360038111156105bd576105bd6111b1565b021790555060e0820151600782015561010090910151600890910155336000818152600260209081526040808320805460018181018355918552838520018690556001600160a01b038b16845281842080548083018255908552838520018690558584528252918290208251608081018452938452915191929182820191610649918a918a910161167d565b60408051808303601f19018152918152908252426020808401919091529101869052825460018082018555600094855293829020835160049092020180546001600160a01b0319166001600160a01b039092169190911781559082015191929091908201906106b890826115bd565b5060408201518160020155606082015181600301555050856001600160a01b0316336001600160a01b0316827f5c2852b0e05fb53cc98898b52d79c6de814ffc662e5586dd2581992aa1e5bfd2888888604051610717939291906116df565b60405180910390a4336001600160a01b0316816000805160206117c7833981519152878760405160200161074c92919061167d565b60408051601f198184030181529082905261076a9188904290611703565b60405180910390a395945050505050565b6001602052816000526040600020818154811061079757600080fd5b6000918252602090912060049091020180546001820180546001600160a01b0390921694509192506107c8906114f7565b80601f01602080910402602001604051908101604052809291908181526020018280546107f4906114f7565b80156108415780601f1061081657610100808354040283529160200191610841565b820191906000526020600020905b81548152906001019060200180831161082457829003601f168201915b5050505050908060020154908060030154905084565b606060016000838152602001908152602001600020805480602002602001604051908101604052809291908181526020016000905b8282101561097a57600084815260209081902060408051608081019091526004850290910180546001600160a01b0316825260018101805492939192918401916108d5906114f7565b80601f0160208091040260200160405190810160405280929190818152602001828054610901906114f7565b801561094e5780601f106109235761010080835404028352916020019161094e565b820191906000526020600020905b81548152906001019060200180831161093157829003601f168201915b50505050508152602001600282015481526020016003820154815250508152602001906001019061088c565b505050509050919050565b600082815260208190526040902060018101546001600160a01b03163314806109ba575060028101546001600160a01b031633145b610a065760405162461bcd60e51b815260206004820152601c60248201527f4e6f742070617274206f662074686973206e65676f74696174696f6e0000000060448201526064016103dc565b6000600682015460ff166003811115610a2157610a216111b1565b14610a3e5760405162461bcd60e51b81526004016103dc90611728565b81610a4a576003610a4d565b60025b60068201805460ff19166001836003811115610a6b57610a6b6111b1565b0217905550426008820155600082610aad5760405180604001604052806012815260200171139959dbdd1a585d1a5bdb8818db1bdcd95960721b815250610adb565b60405180604001604052806014815260200173139959dbdd1a585d1a5bdb881c995a9958dd195960621b8152505b600085815260016020818152604080842081516080810183523381528084018781524293820193909352606081018690528154808601835591865292909420825160049095020180546001600160a01b0319166001600160a01b03909516949094178455519394509290820190610b5290826115bd565b5060408281015160028301556060909201516003909101556006830154905185917fa06d75972e77ee6814e90fe562a447597baedf39ec2f40f40b732be98262164c91610ba29160ff169061175f565b60405180910390a2336001600160a01b0316846000805160206117c783398151915283600042604051610bd793929190611703565b60405180910390a350505050565b600084815260208190526040902060018101546001600160a01b0316331480610c1a575060028101546001600160a01b031633145b610c665760405162461bcd60e51b815260206004820152601c60248201527f4e6f742070617274206f662074686973206e65676f74696174696f6e0000000060448201526064016103dc565b6000600682015460ff166003811115610c8157610c816111b1565b14610c9e5760405162461bcd60e51b81526004016103dc90611728565b8115610cac57600581018290555b42600882015560008581526001602090815260409182902082516080810184523381528351601f88018490048402810184019094528684529092909182810191908890889081908401838280828437600092018290525093855250504260208085019190915260409093018790525083546001808201865594825290829020835160049092020180546001600160a01b0319166001600160a01b03909216919091178155908201519192909190820190610d6690826115bd565b5060408201518160020155606082015181600301555050336001600160a01b0316856000805160206117c783398151915286868642604051610dab9493929190611773565b60405180910390a35050505050565b600081815260208190526040902060028101546001600160a01b03163314610e1d5760405162461bcd60e51b815260206004820152601660248201527513db9b1e481cd95b1b195c8818d85b881858d8d95c1d60521b60448201526064016103dc565b6000600682015460ff166003811115610e3857610e386111b1565b14610e555760405162461bcd60e51b81526004016103dc90611728565b60068101805460ff19166001908117909155426008830155600083815260209182526040908190208151608081018352338152825160608101909352602c8084529193909283820192909161179b908301398152426020808301919091526000604090920182905283546001808201865594835291819020835160049093020180546001600160a01b0319166001600160a01b039093169290921782558201519192909190820190610f0790826115bd565b5060408281015160028301556060909201516003909101556005820154815190815242602082015283917fc08309e59ce8041cb2c0534dd94462f0bcc0cf9441d6f8e51b93781143fb746d910160405180910390a2604080516060808252602c908201527f4f66666572206163636570746564212050726f6365656420776974682065736360808201526b3937bb903232b837b9b4ba1760a11b60a08201526000602082015242818301529051339184916000805160206117c78339815191529181900360c00190a35050565b600060208190529081526040902080546001820154600283015460038401805493946001600160a01b03938416949390921692611010906114f7565b80601f016020809104026020016040519081016040528092919081815260200182805461103c906114f7565b80156110895780601f1061105e57610100808354040283529160200191611089565b820191906000526020600020905b81548152906001019060200180831161106c57829003601f168201915b50505060048401546005850154600686015460078701546008909701549596929591945060ff16925089565b6001600160a01b03811660009081526002602090815260409182902080548351818402810184019094528084526060939283018282801561111557602002820191906000526020600020905b815481526020019060010190808311611101575b50505050509050919050565b6002602052816000526040600020818154811061113d57600080fd5b90600052602060002001600091509150505481565b60006020828403121561116457600080fd5b5035919050565b6000815180845260005b8181101561119157602081850181015186830182015201611175565b506000602082860101526020601f19601f83011685010191505092915050565b634e487b7160e01b600052602160045260246000fd5b600481106111e557634e487b7160e01b600052602160045260246000fd5b9052565b8981526001600160a01b038981166020830152881660408201526101206060820181905260009061121c8382018a61116b565b9150508660808301528560a083015261123860c08301866111c7565b60e08201939093526101000152979650505050505050565b80356001600160a01b038116811461126757600080fd5b919050565b60008083601f84011261127e57600080fd5b50813567ffffffffffffffff81111561129657600080fd5b6020830191508360208285010111156112ae57600080fd5b9250929050565b600080600080606085870312156112cb57600080fd5b6112d485611250565b9350602085013567ffffffffffffffff8111156112f057600080fd5b6112fc8782880161126c565b9598909750949560400135949350505050565b6000806040838503121561132257600080fd5b50508035926020909101359150565b6001600160a01b03851681526080602082018190526000906113559083018661116b565b6040830194909452506060015292915050565b60006020808301818452808551808352604092508286019150828160051b87010184880160005b838110156113f057888303603f19018552815180516001600160a01b03168452878101516080898601819052906113c88287018261116b565b838a0151878b015260609384015193909601929092525050938601939086019060010161138f565b509098975050505050505050565b6000806040838503121561141157600080fd5b823591506020830135801515811461142857600080fd5b809150509250929050565b6000806000806060858703121561144957600080fd5b84359350602085013567ffffffffffffffff8111156112f057600080fd5b60006020828403121561147957600080fd5b61148282611250565b9392505050565b6020808252825182820181905260009190848201906040850190845b818110156114c1578351835292840192918401916001016114a5565b50909695505050505050565b600080604083850312156114e057600080fd5b6114e983611250565b946020939093013593505050565b600181811c9082168061150b57607f821691505b60208210810361152b57634e487b7160e01b600052602260045260246000fd5b50919050565b60006001820161155157634e487b7160e01b600052601160045260246000fd5b5060010190565b634e487b7160e01b600052604160045260246000fd5b601f8211156115b857600081815260208120601f850160051c810160208610156115955750805b601f850160051c820191505b818110156115b4578281556001016115a1565b5050505b505050565b815167ffffffffffffffff8111156115d7576115d7611558565b6115eb816115e584546114f7565b8461156e565b602080601f83116001811461162057600084156116085750858301515b600019600386901b1c1916600185901b1785556115b4565b600085815260208120601f198616915b8281101561164f57888601518255948401946001909101908401611630565b508582101561166d5787850151600019600388901b60f8161c191681555b5050505050600190811b01905550565b7f4e65676f74696174696f6e207374617274656420666f7220000000000000000081528183601883013760009101601801908152919050565b81835281816020850137506000828201602090810191909152601f909101601f19169091010190565b6040815260006116f36040830185876116b6565b9050826020830152949350505050565b606081526000611716606083018661116b565b60208301949094525060400152919050565b60208082526019908201527f4e65676f74696174696f6e206973206e6f742061637469766500000000000000604082015260600190565b6020810161176d82846111c7565b92915050565b6060815260006117876060830186886116b6565b602083019490945250604001529291505056fe4f66666572206163636570746564212050726f63656564207769746820657363726f77206465706f7369742ed05332ea53400b6118f88395f8b12e69eacdf7730a197937607195a8f33a086da264697066735822122028793b85fa7315e8c1b9b7c907afacfa190bf3d86f77d6492f8afe72b27027ec64736f6c63430008140033",
  "linkReferences": {},
  "deployedLinkReferences": {}
}