{
  "_format": "hh-sol-artifact-1",
  "contractName": "Escrow",
  "sourceName": "contracts/Escrow.sol",
  "abi": [
    {
      "anonymous": false,
      "inputs": [
        {
          "indexed": true,
          "internalType": "uint256",
          "name": "escrowId",
          "type": "uint256"
        },
        {
          "indexed": true,
          "internalType": "address",
          "name": "buyer",
          "type": "address"
        },
        {
          "indexed": true,
          "internalType": "address",
          "name": "seller",
          "type": "address"
        },
        {
          "indexed": false,
          "internalType": "string",
          "name": "domain",
          "type": "string"
        },
        {
          "indexed": false,
          "internalType": "uint256",
          "name": "amount",
          "type": "uint256"
        }
      ],
      "name": "Deposited",
      "type": "event"
    },
    {
      "anonymous": false,
      "inputs": [
        {
          "indexed": true,
          "internalType": "uint256",
          "name": "escrowId",
          "type": "uint256"
        },
        {
          "indexed": true,
          "internalType": "address",
          "name": "buyer",
          "type": "address"
        },
        {
          "indexed": false,
          "internalType": "uint256",
          "name": "amount",
          "type": "uint256"
        }
      ],
      "name": "Refunded",
      "type": "event"
    },
    {
      "anonymous": false,
      "inputs": [
        {
          "indexed": true,
          "internalType": "uint256",
          "name": "escrowId",
          "type": "uint256"
        },
        {
          "indexed": true,
          "internalType": "address",
          "name": "seller",
          "type": "address"
        },
        {
          "indexed": false,
          "internalType": "uint256",
          "name": "amount",
          "type": "uint256"
        }
      ],
      "name": "Released",
      "type": "event"
    },
    {
      "inputs": [
        {
          "internalType": "address",
          "name": "seller",
          "type": "address"
        },
        {
          "internalType": "string",
          "name": "domain",
          "type": "string"
        }
      ],
      "name": "deposit",
      "outputs": [
        {
          "internalType": "uint256",
          "name": "",
          "type": "uint256"
        }
      ],
      "stateMutability": "payable",
      "type": "function"
    },
    {
      "inputs": [],
      "name": "escrowCount",
      "outputs": [
        {
          "internalType": "uint256",
          "name": "",
          "type": "uint256"
        }
      ],
      "stateMutability": "view",
      "type": "function"
    },
    {
      "inputs": [
        {
          "internalType": "uint256",
          "name": "",
          "type": "uint256"
        }
      ],
      "name": "escrows",
      "outputs": [
        {
          "internalType": "address",
          "name": "buyer",
          "type": "address"
        },
        {
          "internalType": "address",
          "name": "seller",
          "type": "address"
        },
        {
          "internalType": "string",
          "name": "domain",
          "type": "string"
        },
        {
          "internalType": "uint256",
          "name": "amount",
          "type": "uint256"
        },
        {
          "internalType": "bool",
          "name": "isReleased",
          "type": "bool"
        },
        {
          "internalType": "bool",
          "name": "isRefunded",
          "type": "bool"
        },
        {
          "internalType": "uint256",
          "name": "createdAt",
          "type": "uint256"
        }
      ],
      "stateMutability": "view",
      "type": "function"
    },
    {
      "inputs": [
        {
          "internalType": "uint256",
          "name": "escrowId",
          "type": "uint256"
        }
      ],
      "name": "getEscrow",
      "outputs": [
        {
          "internalType": "address",
          "name": "buyer",
          "type": "address"
        },
        {
          "internalType": "address",
          "name": "seller",
          "type": "address"
        },
        {
          "internalType": "string",
          "name": "domain",
          "type": "string"
        },
        {
          "internalType": "uint256",
          "name": "amount",
          "type": "uint256"
        },
        {
          "internalType": "bool",
          "name": "isReleased",
          "type": "bool"
        },
        {
          "internalType": "bool",
          "name": "isRefunded",
          "type": "bool"
        },
        {
          "internalType": "uint256",
          "name": "createdAt",
          "type": "uint256"
        }
      ],
      "stateMutability": "view",
      "type": "function"
    },
    {
      "inputs": [
        {
          "internalType": "uint256",
          "name": "escrowId",
          "type": "uint256"
        }
      ],
      "name": "refund",
      "outputs": [],
      "stateMutability": "nonpayable",
      "type": "function"
    },
    {
      "inputs": [
        {
          "internalType": "uint256",
          "name": "escrowId",
          "type": "uint256"
        }
      ],
      "name": "release",
      "outputs": [],
      "stateMutability": "nonpayable",
      "type": "function"
    }
  ],
  "bytecode": "0x608060405234801561001057600080fd5b50610e3e806100206000396000f3fe6080604052600436106100555760003560e01c8063012f52ee1461005a578063278ecde11461009657806337bdc99b146100b8578063675ac67a146100d85780637d19e596146100fc578063b74825091461011c575b600080fd5b34801561006657600080fd5b5061007a610075366004610af0565b61012f565b60405161008d9796959493929190610b09565b60405180910390f35b3480156100a257600080fd5b506100b66100b1366004610af0565b610209565b005b3480156100c457600080fd5b506100b66100d3366004610af0565b6104b2565b3480156100e457600080fd5b506100ee60015481565b60405190815260200161008d565b34801561010857600080fd5b5061007a610117366004610af0565b61070c565b6100ee61012a366004610b97565b61085c565b6000602081905290815260409020805460018201546002830180546001600160a01b0393841694929093169261016490610c28565b80601f016020809104026020016040519081016040528092919081815260200182805461019090610c28565b80156101dd5780601f106101b2576101008083540402835291602001916101dd565b820191906000526020600020905b8154815290600101906020018083116101c057829003601f168201915b505050600384015460048501546005909501549394909360ff8083169450610100909204909116915087565b6000818152602081905260409020600481015460ff161561026a5760405162461bcd60e51b8152602060048201526016602482015275119d5b991cc8185b1c9958591e481c995b19585cd95960521b60448201526064015b60405180910390fd5b6004810154610100900460ff16156102bd5760405162461bcd60e51b8152602060048201526016602482015275119d5b991cc8185b1c9958591e481c99599d5b99195960521b6044820152606401610261565b60008160030154116103065760405162461bcd60e51b81526020600482015260126024820152714e6f2066756e647320696e20657363726f7760701b6044820152606401610261565b60018101548154336001600160a01b039283168114926000921614801561033e5750600583015461033a9062278d00610c78565b4210155b905081806103495750805b6103ac5760405162461bcd60e51b815260206004820152602e60248201527f4f6e6c792073656c6c65722063616e20726566756e642c206f7220627579657260448201526d206166746572203330206461797360901b6064820152608401610261565b60048301805461ff001916610100179055825460038401546040516000926001600160a01b031691908381818185875af1925050503d806000811461040d576040519150601f19603f3d011682016040523d82523d6000602084013e610412565b606091505b50509050806104635760405162461bcd60e51b815260206004820152601860248201527f5472616e7366657220746f206275796572206661696c656400000000000000006044820152606401610261565b835460038501546040519081526001600160a01b039091169086907f7ca5472b7ea78c2c0141c5a12ee6d170cf4ce8ed06be3d22c8252ddfc7a6a2c49060200160405180910390a35050505050565b600081815260208190526040902080546001600160a01b031633146105195760405162461bcd60e51b815260206004820152601c60248201527f4f6e6c792062757965722063616e2072656c656173652066756e6473000000006044820152606401610261565b600481015460ff16156105675760405162461bcd60e51b8152602060048201526016602482015275119d5b991cc8185b1c9958591e481c995b19585cd95960521b6044820152606401610261565b6004810154610100900460ff16156105ba5760405162461bcd60e51b8152602060048201526016602482015275119d5b991cc8185b1c9958591e481c99599d5b99195960521b6044820152606401610261565b60008160030154116106035760405162461bcd60e51b81526020600482015260126024820152714e6f2066756e647320696e20657363726f7760701b6044820152606401610261565b60048101805460ff1916600190811790915581015460038201546040516000926001600160a01b031691908381818185875af1925050503d8060008114610666576040519150601f19603f3d011682016040523d82523d6000602084013e61066b565b606091505b50509050806106bc5760405162461bcd60e51b815260206004820152601960248201527f5472616e7366657220746f2073656c6c6572206661696c6564000000000000006044820152606401610261565b600182015460038301546040519081526001600160a01b039091169084907f3bfce8de0db7450cc169b94323c210e69a36c6a4a58c9f5d96bec4973adce3929060200160405180910390a3505050565b600081815260208181526040808320815160e08101835281546001600160a01b039081168252600183015416938101939093526002810180548594606094869485948594859485949093929084019161076490610c28565b80601f016020809104026020016040519081016040528092919081815260200182805461079090610c28565b80156107dd5780601f106107b2576101008083540402835291602001916107dd565b820191906000526020600020905b8154815290600101906020018083116107c057829003601f168201915b50505091835250506003820154602080830191909152600483015460ff808216151560408086019190915261010090920416151560608085019190915260059094015460809384015284519185015190850151938501519285015160a086015160c090960151929f919e50939c50919a50919850919650945092505050565b60008034116108bb5760405162461bcd60e51b815260206004820152602560248201527f4465706f73697420616d6f756e74206d75737420626520677265617465722074604482015264068616e20360dc1b6064820152608401610261565b6001600160a01b03841661090a5760405162461bcd60e51b8152602060048201526016602482015275496e76616c69642073656c6c6572206164647265737360501b6044820152606401610261565b336001600160a01b0385160361096e5760405162461bcd60e51b815260206004820152602360248201527f427579657220616e642073656c6c65722063616e6e6f74206265207468652073604482015262616d6560e81b6064820152608401610261565b600180546000918261097f83610c91565b9190505590506040518060e00160405280336001600160a01b03168152602001866001600160a01b0316815260200185858080601f01602080910402602001604051908101604052809392919081815260200183838082843760009201829052509385525050346020808501919091526040808501849052606085018490524260809095019490945285835282815291839020845181546001600160a01b03199081166001600160a01b039283161783559386015160018301805490951691161790925550908201516002820190610a579082610d0f565b5060608201516003820155608082015160048201805460a085015115156101000261ff00199315159390931661ffff199091161791909117905560c0909101516005909101556040516001600160a01b03861690339083907f8052915fb8276864c6f83293a53526c43a073df753cb054b2f8140058de984e490610ae090899089903490610dcf565b60405180910390a4949350505050565b600060208284031215610b0257600080fd5b5035919050565b600060018060a01b03808a1683526020818a168185015260e06040850152885191508160e085015260005b82811015610b515789810182015185820161010001528101610b34565b5050610100600081838601015280601f19601f84011685010192505050856060830152610b82608083018615159052565b92151560a082015260c0015295945050505050565b600080600060408486031215610bac57600080fd5b83356001600160a01b0381168114610bc357600080fd5b9250602084013567ffffffffffffffff80821115610be057600080fd5b818601915086601f830112610bf457600080fd5b813581811115610c0357600080fd5b876020828501011115610c1557600080fd5b6020830194508093505050509250925092565b600181811c90821680610c3c57607f821691505b602082108103610c5c57634e487b7160e01b600052602260045260246000fd5b50919050565b634e487b7160e01b600052601160045260246000fd5b80820180821115610c8b57610c8b610c62565b92915050565b600060018201610ca357610ca3610c62565b5060010190565b634e487b7160e01b600052604160045260246000fd5b601f821115610d0a57600081815260208120601f850160051c81016020861015610ce75750805b601f850160051c820191505b81811015610d0657828155600101610cf3565b5050505b505050565b815167ffffffffffffffff811115610d2957610d29610caa565b610d3d81610d378454610c28565b84610cc0565b602080601f831160018114610d725760008415610d5a5750858301515b600019600386901b1c1916600185901b178555610d06565b600085815260208120601f198616915b82811015610da157888601518255948401946001909101908401610d82565b5085821015610dbf5787850151600019600388901b60f8161c191681555b5050505050600190811b01905550565b604081528260408201528284606083013760006060848301015260006060601f19601f860116830101905082602083015294935050505056fea26469706673582212209d1f896a19b6997ba83f95014ef5cba8a7ef9254e4045f5bb1415c79bdf68a1664736f6c63430008140033",
  "linkReferences": {},
  "deployedLinkReferences": {}
}